{
	"data": {
		"bytecode": {
			"linkReferences": {},
			"object": "608060405234801561000f575f80fd5b50335f806101000a81548173ffffffffffffffffffffffffffffffffffffffff021916908373ffffffffffffffffffffffffffffffffffffffff160217905550600333908060018154018082558091505060019003905f5260205f20015f9091909190916101000a81548173ffffffffffffffffffffffffffffffffffffffff021916908373ffffffffffffffffffffffffffffffffffffffff1602179055506115a0806100bc5f395ff3fe608060405234801561000f575f80fd5b506004361061007b575f3560e01c8063b3f98adc11610059578063b3f98adc146100d5578063c7f758a8146100f1578063cbff75cb14610121578063dbddc7aa146101515761007b565b806313af40351461007f5780633ca6d1001461009b57806341ec6870146100b7575b5f80fd5b61009960048036038101906100949190610d24565b61015b565b005b6100b560048036038101906100b09190610de3565b6101f3565b005b6100bf6103d4565b6040516100cc9190610fdb565b60405180910390f35b6100ef60048036038101906100ea9190611031565b61057c565b005b61010b6004803603810190610106919061105c565b610849565b6040516101189190610fdb565b60405180910390f35b61013b60048036038101906101369190610d24565b6109f1565b6040516101489190611096565b60405180910390f35b610159610a93565b005b5f8054906101000a900473ffffffffffffffffffffffffffffffffffffffff1673ffffffffffffffffffffffffffffffffffffffff163373ffffffffffffffffffffffffffffffffffffffff16146101b1575f80fd5b805f806101000a81548173ffffffffffffffffffffffffffffffffffffffff021916908373ffffffffffffffffffffffffffffffffffffffff16021790555050565b5f8054906101000a900473ffffffffffffffffffffffffffffffffffffffff1673ffffffffffffffffffffffffffffffffffffffff163373ffffffffffffffffffffffffffffffffffffffff1614610249575f80fd5b6001805f82825461025a91906110dc565b9250508190555060405180610100016040528086868080601f0160208091040260200160405190810160405280939291908181526020018383808284375f81840152601f19601f82011690508083019250505050505050815260200184848080601f0160208091040260200160405190810160405280939291908181526020018383808284375f81840152601f19601f8201169050808301925050505050505081526020015f81526020015f81526020015f81526020018281526020015f151581526020016001151581525060025f60015481526020019081526020015f205f820151815f01908161034c9190611336565b5060208201518160010190816103629190611336565b5060408201518160020155606082015181600301556080820151816004015560a0820151816005015560c0820151816006015f6101000a81548160ff02191690831515021790555060e08201518160060160016101000a81548160ff0219169083151502179055509050505050505050565b6103dc610bdd565b60025f60015481526020019081526020015f20604051806101000160405290815f8201805461040a90611169565b80601f016020809104026020016040519081016040528092919081815260200182805461043690611169565b80156104815780601f1061045857610100808354040283529160200191610481565b820191905f5260205f20905b81548152906001019060200180831161046457829003601f168201915b5050505050815260200160018201805461049a90611169565b80601f01602080910402602001604051908101604052809291908181526020018280546104c690611169565b80156105115780601f106104e857610100808354040283529160200191610511565b820191905f5260205f20905b8154815290600101906020018083116104f457829003601f168201915b5050505050815260200160028201548152602001600382015481526020016004820154815260200160058201548152602001600682015f9054906101000a900460ff161515151581526020016006820160019054906101000a900460ff161515151581525050905090565b6001151560025f60015481526020019081526020015f2060060160019054906101000a900460ff161515146105af575f80fd5b336105b9816109f1565b156105f9576040517f08c379a00000000000000000000000000000000000000000000000000000000081526004016105f09061145f565b60405180910390fd5b5f60025f60015481526020019081526020015f2090505f81600401548260030154836002015461062991906110dc565b61063391906110dc565b9050600333908060018154018082558091505060019003905f5260205f20015f9091909190916101000a81548173ffffffffffffffffffffffffffffffffffffffff021916908373ffffffffffffffffffffffffffffffffffffffff16021790555060018460ff16036106e2576001826002015f8282546106b491906110dc565b925050819055506106c3610b4c565b826006015f6101000a81548160ff021916908315150217905550610779565b60028460ff160361072f576001826003015f82825461070191906110dc565b92505081905550610710610b4c565b826006015f6101000a81548160ff021916908315150217905550610778565b5f8460ff1603610777576001826004015f82825461074d91906110dc565b9250508190555061075c610b4c565b826006015f6101000a81548160ff0219169083151502179055505b5b5b600181836005015461078b919061147d565b1480156107b6575060018460ff1614806107a8575060028460ff16145b806107b557505f8460ff16145b5b15610843575f8260060160016101000a81548160ff02191690831515021790555060405180602001604052805f8054906101000a900473ffffffffffffffffffffffffffffffffffffffff1673ffffffffffffffffffffffffffffffffffffffff1673ffffffffffffffffffffffffffffffffffffffff168152506003906001610841929190610c20565b505b50505050565b610851610bdd565b60025f8381526020019081526020015f20604051806101000160405290815f8201805461087d90611169565b80601f01602080910402602001604051908101604052809291908181526020018280546108a990611169565b80156108f45780601f106108cb576101008083540402835291602001916108f4565b820191905f5260205f20905b8154815290600101906020018083116108d757829003601f168201915b5050505050815260200160018201805461090d90611169565b80601f016020809104026020016040519081016040528092919081815260200182805461093990611169565b80156109845780601f1061095b57610100808354040283529160200191610984565b820191905f5260205f20905b81548152906001019060200180831161096757829003601f168201915b5050505050815260200160028201548152602001600382015481526020016004820154815260200160058201548152602001600682015f9054906101000a900460ff161515151581526020016006820160019054906101000a900460ff1615151515815250509050919050565b5f805f90505b600380549050811015610a89578273ffffffffffffffffffffffffffffffffffffffff1660038281548110610a2f57610a2e6114b0565b5b905f5260205f20015f9054906101000a900473ffffffffffffffffffffffffffffffffffffffff1673ffffffffffffffffffffffffffffffffffffffff1603610a7c576001915050610a8e565b80806001019150506109f7565b505f90505b919050565b5f8054906101000a900473ffffffffffffffffffffffffffffffffffffffff1673ffffffffffffffffffffffffffffffffffffffff163373ffffffffffffffffffffffffffffffffffffffff1614610ae9575f80fd5b6001151560025f60015481526020019081526020015f2060060160019054906101000a900460ff16151514610b1c575f80fd5b5f60025f60015481526020019081526020015f2060060160016101000a81548160ff021916908315150217905550565b5f8060025f60015481526020019081526020015f2090505f816002015490505f826003015490505f83600401549050600160028560040154610b8e919061150a565b03610ba357600181610ba091906110dc565b90505b600281610bb0919061153a565b90508082610bbe91906110dc565b831115610bd2576001945050505050610bda565b5f9450505050505b90565b60405180610100016040528060608152602001606081526020015f81526020015f81526020015f81526020015f81526020015f151581526020015f151581525090565b828054828255905f5260205f20908101928215610c96579160200282015b82811115610c95578251825f6101000a81548173ffffffffffffffffffffffffffffffffffffffff021916908373ffffffffffffffffffffffffffffffffffffffff16021790555091602001919060010190610c3e565b5b509050610ca39190610ca7565b5090565b5b80821115610cbe575f815f905550600101610ca8565b5090565b5f80fd5b5f80fd5b5f73ffffffffffffffffffffffffffffffffffffffff82169050919050565b5f610cf382610cca565b9050919050565b610d0381610ce9565b8114610d0d575f80fd5b50565b5f81359050610d1e81610cfa565b92915050565b5f60208284031215610d3957610d38610cc2565b5b5f610d4684828501610d10565b91505092915050565b5f80fd5b5f80fd5b5f80fd5b5f8083601f840112610d7057610d6f610d4f565b5b8235905067ffffffffffffffff811115610d8d57610d8c610d53565b5b602083019150836001820283011115610da957610da8610d57565b5b9250929050565b5f819050919050565b610dc281610db0565b8114610dcc575f80fd5b50565b5f81359050610ddd81610db9565b92915050565b5f805f805f60608688031215610dfc57610dfb610cc2565b5b5f86013567ffffffffffffffff811115610e1957610e18610cc6565b5b610e2588828901610d5b565b9550955050602086013567ffffffffffffffff811115610e4857610e47610cc6565b5b610e5488828901610d5b565b93509350506040610e6788828901610dcf565b9150509295509295909350565b5f81519050919050565b5f82825260208201905092915050565b5f5b83811015610eab578082015181840152602081019050610e90565b5f8484015250505050565b5f601f19601f8301169050919050565b5f610ed082610e74565b610eda8185610e7e565b9350610eea818560208601610e8e565b610ef381610eb6565b840191505092915050565b610f0781610db0565b82525050565b5f8115159050919050565b610f2181610f0d565b82525050565b5f61010083015f8301518482035f860152610f428282610ec6565b91505060208301518482036020860152610f5c8282610ec6565b9150506040830151610f716040860182610efe565b506060830151610f846060860182610efe565b506080830151610f976080860182610efe565b5060a0830151610faa60a0860182610efe565b5060c0830151610fbd60c0860182610f18565b5060e0830151610fd060e0860182610f18565b508091505092915050565b5f6020820190508181035f830152610ff38184610f27565b905092915050565b5f60ff82169050919050565b61101081610ffb565b811461101a575f80fd5b50565b5f8135905061102b81611007565b92915050565b5f6020828403121561104657611045610cc2565b5b5f6110538482850161101d565b91505092915050565b5f6020828403121561107157611070610cc2565b5b5f61107e84828501610dcf565b91505092915050565b61109081610f0d565b82525050565b5f6020820190506110a95f830184611087565b92915050565b7f4e487b71000000000000000000000000000000000000000000000000000000005f52601160045260245ffd5b5f6110e682610db0565b91506110f183610db0565b9250828201905080821115611109576111086110af565b5b92915050565b7f4e487b71000000000000000000000000000000000000000000000000000000005f52604160045260245ffd5b7f4e487b71000000000000000000000000000000000000000000000000000000005f52602260045260245ffd5b5f600282049050600182168061118057607f821691505b6020821081036111935761119261113c565b5b50919050565b5f819050815f5260205f209050919050565b5f6020601f8301049050919050565b5f82821b905092915050565b5f600883026111f57fffffffffffffffffffffffffffffffffffffffffffffffffffffffffffffffff826111ba565b6111ff86836111ba565b95508019841693508086168417925050509392505050565b5f819050919050565b5f61123a61123561123084610db0565b611217565b610db0565b9050919050565b5f819050919050565b61125383611220565b61126761125f82611241565b8484546111c6565b825550505050565b5f90565b61127b61126f565b61128681848461124a565b505050565b5b818110156112a95761129e5f82611273565b60018101905061128c565b5050565b601f8211156112ee576112bf81611199565b6112c8846111ab565b810160208510156112d7578190505b6112eb6112e3856111ab565b83018261128b565b50505b505050565b5f82821c905092915050565b5f61130e5f19846008026112f3565b1980831691505092915050565b5f61132683836112ff565b9150826002028217905092915050565b61133f82610e74565b67ffffffffffffffff8111156113585761135761110f565b5b6113628254611169565b61136d8282856112ad565b5f60209050601f83116001811461139e575f841561138c578287015190505b611396858261131b565b8655506113fd565b601f1984166113ac86611199565b5f5b828110156113d3578489015182556001820191506020850194506020810190506113ae565b868310156113f057848901516113ec601f8916826112ff565b8355505b6001600288020188555050505b505050505050565b5f82825260208201905092915050565b7f4164647265737320686173206e6f7420766f74656420796574000000000000005f82015250565b5f611449601983611405565b915061145482611415565b602082019050919050565b5f6020820190508181035f8301526114768161143d565b9050919050565b5f61148782610db0565b915061149283610db0565b92508282039050818111156114aa576114a96110af565b5b92915050565b7f4e487b71000000000000000000000000000000000000000000000000000000005f52603260045260245ffd5b7f4e487b71000000000000000000000000000000000000000000000000000000005f52601260045260245ffd5b5f61151482610db0565b915061151f83610db0565b92508261152f5761152e6114dd565b5b828206905092915050565b5f61154482610db0565b915061154f83610db0565b92508261155f5761155e6114dd565b5b82820490509291505056fea26469706673582212203c3e720827f4e6c0b734c92545562787d18faba9da998b3f30e875eabd332f7864736f6c63430008180033",
			"opcodes": "PUSH1 0x80 PUSH1 0x40 MSTORE CALLVALUE DUP1 ISZERO PUSH2 0xF JUMPI PUSH0 DUP1 REVERT JUMPDEST POP CALLER PUSH0 DUP1 PUSH2 0x100 EXP DUP2 SLOAD DUP2 PUSH20 0xFFFFFFFFFFFFFFFFFFFFFFFFFFFFFFFFFFFFFFFF MUL NOT AND SWAP1 DUP4 PUSH20 0xFFFFFFFFFFFFFFFFFFFFFFFFFFFFFFFFFFFFFFFF AND MUL OR SWAP1 SSTORE POP PUSH1 0x3 CALLER SWAP1 DUP1 PUSH1 0x1 DUP2 SLOAD ADD DUP1 DUP3 SSTORE DUP1 SWAP2 POP POP PUSH1 0x1 SWAP1 SUB SWAP1 PUSH0 MSTORE PUSH1 0x20 PUSH0 KECCAK256 ADD PUSH0 SWAP1 SWAP2 SWAP1 SWAP2 SWAP1 SWAP2 PUSH2 0x100 EXP DUP2 SLOAD DUP2 PUSH20 0xFFFFFFFFFFFFFFFFFFFFFFFFFFFFFFFFFFFFFFFF MUL NOT AND SWAP1 DUP4 PUSH20 0xFFFFFFFFFFFFFFFFFFFFFFFFFFFFFFFFFFFFFFFF AND MUL OR SWAP1 SSTORE POP PUSH2 0x15A0 DUP1 PUSH2 0xBC PUSH0 CODECOPY PUSH0 RETURN INVALID PUSH1 0x80 PUSH1 0x40 MSTORE CALLVALUE DUP1 ISZERO PUSH2 0xF JUMPI PUSH0 DUP1 REVERT JUMPDEST POP PUSH1 0x4 CALLDATASIZE LT PUSH2 0x7B JUMPI PUSH0 CALLDATALOAD PUSH1 0xE0 SHR DUP1 PUSH4 0xB3F98ADC GT PUSH2 0x59 JUMPI DUP1 PUSH4 0xB3F98ADC EQ PUSH2 0xD5 JUMPI DUP1 PUSH4 0xC7F758A8 EQ PUSH2 0xF1 JUMPI DUP1 PUSH4 0xCBFF75CB EQ PUSH2 0x121 JUMPI DUP1 PUSH4 0xDBDDC7AA EQ PUSH2 0x151 JUMPI PUSH2 0x7B JUMP JUMPDEST DUP1 PUSH4 0x13AF4035 EQ PUSH2 0x7F JUMPI DUP1 PUSH4 0x3CA6D100 EQ PUSH2 0x9B JUMPI DUP1 PUSH4 0x41EC6870 EQ PUSH2 0xB7 JUMPI JUMPDEST PUSH0 DUP1 REVERT JUMPDEST PUSH2 0x99 PUSH1 0x4 DUP1 CALLDATASIZE SUB DUP2 ADD SWAP1 PUSH2 0x94 SWAP2 SWAP1 PUSH2 0xD24 JUMP JUMPDEST PUSH2 0x15B JUMP JUMPDEST STOP JUMPDEST PUSH2 0xB5 PUSH1 0x4 DUP1 CALLDATASIZE SUB DUP2 ADD SWAP1 PUSH2 0xB0 SWAP2 SWAP1 PUSH2 0xDE3 JUMP JUMPDEST PUSH2 0x1F3 JUMP JUMPDEST STOP JUMPDEST PUSH2 0xBF PUSH2 0x3D4 JUMP JUMPDEST PUSH1 0x40 MLOAD PUSH2 0xCC SWAP2 SWAP1 PUSH2 0xFDB JUMP JUMPDEST PUSH1 0x40 MLOAD DUP1 SWAP2 SUB SWAP1 RETURN JUMPDEST PUSH2 0xEF PUSH1 0x4 DUP1 CALLDATASIZE SUB DUP2 ADD SWAP1 PUSH2 0xEA SWAP2 SWAP1 PUSH2 0x1031 JUMP JUMPDEST PUSH2 0x57C JUMP JUMPDEST STOP JUMPDEST PUSH2 0x10B PUSH1 0x4 DUP1 CALLDATASIZE SUB DUP2 ADD SWAP1 PUSH2 0x106 SWAP2 SWAP1 PUSH2 0x105C JUMP JUMPDEST PUSH2 0x849 JUMP JUMPDEST PUSH1 0x40 MLOAD PUSH2 0x118 SWAP2 SWAP1 PUSH2 0xFDB JUMP JUMPDEST PUSH1 0x40 MLOAD DUP1 SWAP2 SUB SWAP1 RETURN JUMPDEST PUSH2 0x13B PUSH1 0x4 DUP1 CALLDATASIZE SUB DUP2 ADD SWAP1 PUSH2 0x136 SWAP2 SWAP1 PUSH2 0xD24 JUMP JUMPDEST PUSH2 0x9F1 JUMP JUMPDEST PUSH1 0x40 MLOAD PUSH2 0x148 SWAP2 SWAP1 PUSH2 0x1096 JUMP JUMPDEST PUSH1 0x40 MLOAD DUP1 SWAP2 SUB SWAP1 RETURN JUMPDEST PUSH2 0x159 PUSH2 0xA93 JUMP JUMPDEST STOP JUMPDEST PUSH0 DUP1 SLOAD SWAP1 PUSH2 0x100 EXP SWAP1 DIV PUSH20 0xFFFFFFFFFFFFFFFFFFFFFFFFFFFFFFFFFFFFFFFF AND PUSH20 0xFFFFFFFFFFFFFFFFFFFFFFFFFFFFFFFFFFFFFFFF AND CALLER PUSH20 0xFFFFFFFFFFFFFFFFFFFFFFFFFFFFFFFFFFFFFFFF AND EQ PUSH2 0x1B1 JUMPI PUSH0 DUP1 REVERT JUMPDEST DUP1 PUSH0 DUP1 PUSH2 0x100 EXP DUP2 SLOAD DUP2 PUSH20 0xFFFFFFFFFFFFFFFFFFFFFFFFFFFFFFFFFFFFFFFF MUL NOT AND SWAP1 DUP4 PUSH20 0xFFFFFFFFFFFFFFFFFFFFFFFFFFFFFFFFFFFFFFFF AND MUL OR SWAP1 SSTORE POP POP JUMP JUMPDEST PUSH0 DUP1 SLOAD SWAP1 PUSH2 0x100 EXP SWAP1 DIV PUSH20 0xFFFFFFFFFFFFFFFFFFFFFFFFFFFFFFFFFFFFFFFF AND PUSH20 0xFFFFFFFFFFFFFFFFFFFFFFFFFFFFFFFFFFFFFFFF AND CALLER PUSH20 0xFFFFFFFFFFFFFFFFFFFFFFFFFFFFFFFFFFFFFFFF AND EQ PUSH2 0x249 JUMPI PUSH0 DUP1 REVERT JUMPDEST PUSH1 0x1 DUP1 PUSH0 DUP3 DUP3 SLOAD PUSH2 0x25A SWAP2 SWAP1 PUSH2 0x10DC JUMP JUMPDEST SWAP3 POP POP DUP2 SWAP1 SSTORE POP PUSH1 0x40 MLOAD DUP1 PUSH2 0x100 ADD PUSH1 0x40 MSTORE DUP1 DUP7 DUP7 DUP1 DUP1 PUSH1 0x1F ADD PUSH1 0x20 DUP1 SWAP2 DIV MUL PUSH1 0x20 ADD PUSH1 0x40 MLOAD SWAP1 DUP2 ADD PUSH1 0x40 MSTORE DUP1 SWAP4 SWAP3 SWAP2 SWAP1 DUP2 DUP2 MSTORE PUSH1 0x20 ADD DUP4 DUP4 DUP1 DUP3 DUP5 CALLDATACOPY PUSH0 DUP2 DUP5 ADD MSTORE PUSH1 0x1F NOT PUSH1 0x1F DUP3 ADD AND SWAP1 POP DUP1 DUP4 ADD SWAP3 POP POP POP POP POP POP POP DUP2 MSTORE PUSH1 0x20 ADD DUP5 DUP5 DUP1 DUP1 PUSH1 0x1F ADD PUSH1 0x20 DUP1 SWAP2 DIV MUL PUSH1 0x20 ADD PUSH1 0x40 MLOAD SWAP1 DUP2 ADD PUSH1 0x40 MSTORE DUP1 SWAP4 SWAP3 SWAP2 SWAP1 DUP2 DUP2 MSTORE PUSH1 0x20 ADD DUP4 DUP4 DUP1 DUP3 DUP5 CALLDATACOPY PUSH0 DUP2 DUP5 ADD MSTORE PUSH1 0x1F NOT PUSH1 0x1F DUP3 ADD AND SWAP1 POP DUP1 DUP4 ADD SWAP3 POP POP POP POP POP POP POP DUP2 MSTORE PUSH1 0x20 ADD PUSH0 DUP2 MSTORE PUSH1 0x20 ADD PUSH0 DUP2 MSTORE PUSH1 0x20 ADD PUSH0 DUP2 MSTORE PUSH1 0x20 ADD DUP3 DUP2 MSTORE PUSH1 0x20 ADD PUSH0 ISZERO ISZERO DUP2 MSTORE PUSH1 0x20 ADD PUSH1 0x1 ISZERO ISZERO DUP2 MSTORE POP PUSH1 0x2 PUSH0 PUSH1 0x1 SLOAD DUP2 MSTORE PUSH1 0x20 ADD SWAP1 DUP2 MSTORE PUSH1 0x20 ADD PUSH0 KECCAK256 PUSH0 DUP3 ADD MLOAD DUP2 PUSH0 ADD SWAP1 DUP2 PUSH2 0x34C SWAP2 SWAP1 PUSH2 0x1336 JUMP JUMPDEST POP PUSH1 0x20 DUP3 ADD MLOAD DUP2 PUSH1 0x1 ADD SWAP1 DUP2 PUSH2 0x362 SWAP2 SWAP1 PUSH2 0x1336 JUMP JUMPDEST POP PUSH1 0x40 DUP3 ADD MLOAD DUP2 PUSH1 0x2 ADD SSTORE PUSH1 0x60 DUP3 ADD MLOAD DUP2 PUSH1 0x3 ADD SSTORE PUSH1 0x80 DUP3 ADD MLOAD DUP2 PUSH1 0x4 ADD SSTORE PUSH1 0xA0 DUP3 ADD MLOAD DUP2 PUSH1 0x5 ADD SSTORE PUSH1 0xC0 DUP3 ADD MLOAD DUP2 PUSH1 0x6 ADD PUSH0 PUSH2 0x100 EXP DUP2 SLOAD DUP2 PUSH1 0xFF MUL NOT AND SWAP1 DUP4 ISZERO ISZERO MUL OR SWAP1 SSTORE POP PUSH1 0xE0 DUP3 ADD MLOAD DUP2 PUSH1 0x6 ADD PUSH1 0x1 PUSH2 0x100 EXP DUP2 SLOAD DUP2 PUSH1 0xFF MUL NOT AND SWAP1 DUP4 ISZERO ISZERO MUL OR SWAP1 SSTORE POP SWAP1 POP POP POP POP POP POP POP JUMP JUMPDEST PUSH2 0x3DC PUSH2 0xBDD JUMP JUMPDEST PUSH1 0x2 PUSH0 PUSH1 0x1 SLOAD DUP2 MSTORE PUSH1 0x20 ADD SWAP1 DUP2 MSTORE PUSH1 0x20 ADD PUSH0 KECCAK256 PUSH1 0x40 MLOAD DUP1 PUSH2 0x100 ADD PUSH1 0x40 MSTORE SWAP1 DUP2 PUSH0 DUP3 ADD DUP1 SLOAD PUSH2 0x40A SWAP1 PUSH2 0x1169 JUMP JUMPDEST DUP1 PUSH1 0x1F ADD PUSH1 0x20 DUP1 SWAP2 DIV MUL PUSH1 0x20 ADD PUSH1 0x40 MLOAD SWAP1 DUP2 ADD PUSH1 0x40 MSTORE DUP1 SWAP3 SWAP2 SWAP1 DUP2 DUP2 MSTORE PUSH1 0x20 ADD DUP3 DUP1 SLOAD PUSH2 0x436 SWAP1 PUSH2 0x1169 JUMP JUMPDEST DUP1 ISZERO PUSH2 0x481 JUMPI DUP1 PUSH1 0x1F LT PUSH2 0x458 JUMPI PUSH2 0x100 DUP1 DUP4 SLOAD DIV MUL DUP4 MSTORE SWAP2 PUSH1 0x20 ADD SWAP2 PUSH2 0x481 JUMP JUMPDEST DUP3 ADD SWAP2 SWAP1 PUSH0 MSTORE PUSH1 0x20 PUSH0 KECCAK256 SWAP1 JUMPDEST DUP2 SLOAD DUP2 MSTORE SWAP1 PUSH1 0x1 ADD SWAP1 PUSH1 0x20 ADD DUP1 DUP4 GT PUSH2 0x464 JUMPI DUP3 SWAP1 SUB PUSH1 0x1F AND DUP3 ADD SWAP2 JUMPDEST POP POP POP POP POP DUP2 MSTORE PUSH1 0x20 ADD PUSH1 0x1 DUP3 ADD DUP1 SLOAD PUSH2 0x49A SWAP1 PUSH2 0x1169 JUMP JUMPDEST DUP1 PUSH1 0x1F ADD PUSH1 0x20 DUP1 SWAP2 DIV MUL PUSH1 0x20 ADD PUSH1 0x40 MLOAD SWAP1 DUP2 ADD PUSH1 0x40 MSTORE DUP1 SWAP3 SWAP2 SWAP1 DUP2 DUP2 MSTORE PUSH1 0x20 ADD DUP3 DUP1 SLOAD PUSH2 0x4C6 SWAP1 PUSH2 0x1169 JUMP JUMPDEST DUP1 ISZERO PUSH2 0x511 JUMPI DUP1 PUSH1 0x1F LT PUSH2 0x4E8 JUMPI PUSH2 0x100 DUP1 DUP4 SLOAD DIV MUL DUP4 MSTORE SWAP2 PUSH1 0x20 ADD SWAP2 PUSH2 0x511 JUMP JUMPDEST DUP3 ADD SWAP2 SWAP1 PUSH0 MSTORE PUSH1 0x20 PUSH0 KECCAK256 SWAP1 JUMPDEST DUP2 SLOAD DUP2 MSTORE SWAP1 PUSH1 0x1 ADD SWAP1 PUSH1 0x20 ADD DUP1 DUP4 GT PUSH2 0x4F4 JUMPI DUP3 SWAP1 SUB PUSH1 0x1F AND DUP3 ADD SWAP2 JUMPDEST POP POP POP POP POP DUP2 MSTORE PUSH1 0x20 ADD PUSH1 0x2 DUP3 ADD SLOAD DUP2 MSTORE PUSH1 0x20 ADD PUSH1 0x3 DUP3 ADD SLOAD DUP2 MSTORE PUSH1 0x20 ADD PUSH1 0x4 DUP3 ADD SLOAD DUP2 MSTORE PUSH1 0x20 ADD PUSH1 0x5 DUP3 ADD SLOAD DUP2 MSTORE PUSH1 0x20 ADD PUSH1 0x6 DUP3 ADD PUSH0 SWAP1 SLOAD SWAP1 PUSH2 0x100 EXP SWAP1 DIV PUSH1 0xFF AND ISZERO ISZERO ISZERO ISZERO DUP2 MSTORE PUSH1 0x20 ADD PUSH1 0x6 DUP3 ADD PUSH1 0x1 SWAP1 SLOAD SWAP1 PUSH2 0x100 EXP SWAP1 DIV PUSH1 0xFF AND ISZERO ISZERO ISZERO ISZERO DUP2 MSTORE POP POP SWAP1 POP SWAP1 JUMP JUMPDEST PUSH1 0x1 ISZERO ISZERO PUSH1 0x2 PUSH0 PUSH1 0x1 SLOAD DUP2 MSTORE PUSH1 0x20 ADD SWAP1 DUP2 MSTORE PUSH1 0x20 ADD PUSH0 KECCAK256 PUSH1 0x6 ADD PUSH1 0x1 SWAP1 SLOAD SWAP1 PUSH2 0x100 EXP SWAP1 DIV PUSH1 0xFF AND ISZERO ISZERO EQ PUSH2 0x5AF JUMPI PUSH0 DUP1 REVERT JUMPDEST CALLER PUSH2 0x5B9 DUP2 PUSH2 0x9F1 JUMP JUMPDEST ISZERO PUSH2 0x5F9 JUMPI PUSH1 0x40 MLOAD PUSH32 0x8C379A000000000000000000000000000000000000000000000000000000000 DUP2 MSTORE PUSH1 0x4 ADD PUSH2 0x5F0 SWAP1 PUSH2 0x145F JUMP JUMPDEST PUSH1 0x40 MLOAD DUP1 SWAP2 SUB SWAP1 REVERT JUMPDEST PUSH0 PUSH1 0x2 PUSH0 PUSH1 0x1 SLOAD DUP2 MSTORE PUSH1 0x20 ADD SWAP1 DUP2 MSTORE PUSH1 0x20 ADD PUSH0 KECCAK256 SWAP1 POP PUSH0 DUP2 PUSH1 0x4 ADD SLOAD DUP3 PUSH1 0x3 ADD SLOAD DUP4 PUSH1 0x2 ADD SLOAD PUSH2 0x629 SWAP2 SWAP1 PUSH2 0x10DC JUMP JUMPDEST PUSH2 0x633 SWAP2 SWAP1 PUSH2 0x10DC JUMP JUMPDEST SWAP1 POP PUSH1 0x3 CALLER SWAP1 DUP1 PUSH1 0x1 DUP2 SLOAD ADD DUP1 DUP3 SSTORE DUP1 SWAP2 POP POP PUSH1 0x1 SWAP1 SUB SWAP1 PUSH0 MSTORE PUSH1 0x20 PUSH0 KECCAK256 ADD PUSH0 SWAP1 SWAP2 SWAP1 SWAP2 SWAP1 SWAP2 PUSH2 0x100 EXP DUP2 SLOAD DUP2 PUSH20 0xFFFFFFFFFFFFFFFFFFFFFFFFFFFFFFFFFFFFFFFF MUL NOT AND SWAP1 DUP4 PUSH20 0xFFFFFFFFFFFFFFFFFFFFFFFFFFFFFFFFFFFFFFFF AND MUL OR SWAP1 SSTORE POP PUSH1 0x1 DUP5 PUSH1 0xFF AND SUB PUSH2 0x6E2 JUMPI PUSH1 0x1 DUP3 PUSH1 0x2 ADD PUSH0 DUP3 DUP3 SLOAD PUSH2 0x6B4 SWAP2 SWAP1 PUSH2 0x10DC JUMP JUMPDEST SWAP3 POP POP DUP2 SWAP1 SSTORE POP PUSH2 0x6C3 PUSH2 0xB4C JUMP JUMPDEST DUP3 PUSH1 0x6 ADD PUSH0 PUSH2 0x100 EXP DUP2 SLOAD DUP2 PUSH1 0xFF MUL NOT AND SWAP1 DUP4 ISZERO ISZERO MUL OR SWAP1 SSTORE POP PUSH2 0x779 JUMP JUMPDEST PUSH1 0x2 DUP5 PUSH1 0xFF AND SUB PUSH2 0x72F JUMPI PUSH1 0x1 DUP3 PUSH1 0x3 ADD PUSH0 DUP3 DUP3 SLOAD PUSH2 0x701 SWAP2 SWAP1 PUSH2 0x10DC JUMP JUMPDEST SWAP3 POP POP DUP2 SWAP1 SSTORE POP PUSH2 0x710 PUSH2 0xB4C JUMP JUMPDEST DUP3 PUSH1 0x6 ADD PUSH0 PUSH2 0x100 EXP DUP2 SLOAD DUP2 PUSH1 0xFF MUL NOT AND SWAP1 DUP4 ISZERO ISZERO MUL OR SWAP1 SSTORE POP PUSH2 0x778 JUMP JUMPDEST PUSH0 DUP5 PUSH1 0xFF AND SUB PUSH2 0x777 JUMPI PUSH1 0x1 DUP3 PUSH1 0x4 ADD PUSH0 DUP3 DUP3 SLOAD PUSH2 0x74D SWAP2 SWAP1 PUSH2 0x10DC JUMP JUMPDEST SWAP3 POP POP DUP2 SWAP1 SSTORE POP PUSH2 0x75C PUSH2 0xB4C JUMP JUMPDEST DUP3 PUSH1 0x6 ADD PUSH0 PUSH2 0x100 EXP DUP2 SLOAD DUP2 PUSH1 0xFF MUL NOT AND SWAP1 DUP4 ISZERO ISZERO MUL OR SWAP1 SSTORE POP JUMPDEST JUMPDEST JUMPDEST PUSH1 0x1 DUP2 DUP4 PUSH1 0x5 ADD SLOAD PUSH2 0x78B SWAP2 SWAP1 PUSH2 0x147D JUMP JUMPDEST EQ DUP1 ISZERO PUSH2 0x7B6 JUMPI POP PUSH1 0x1 DUP5 PUSH1 0xFF AND EQ DUP1 PUSH2 0x7A8 JUMPI POP PUSH1 0x2 DUP5 PUSH1 0xFF AND EQ JUMPDEST DUP1 PUSH2 0x7B5 JUMPI POP PUSH0 DUP5 PUSH1 0xFF AND EQ JUMPDEST JUMPDEST ISZERO PUSH2 0x843 JUMPI PUSH0 DUP3 PUSH1 0x6 ADD PUSH1 0x1 PUSH2 0x100 EXP DUP2 SLOAD DUP2 PUSH1 0xFF MUL NOT AND SWAP1 DUP4 ISZERO ISZERO MUL OR SWAP1 SSTORE POP PUSH1 0x40 MLOAD DUP1 PUSH1 0x20 ADD PUSH1 0x40 MSTORE DUP1 PUSH0 DUP1 SLOAD SWAP1 PUSH2 0x100 EXP SWAP1 DIV PUSH20 0xFFFFFFFFFFFFFFFFFFFFFFFFFFFFFFFFFFFFFFFF AND PUSH20 0xFFFFFFFFFFFFFFFFFFFFFFFFFFFFFFFFFFFFFFFF AND PUSH20 0xFFFFFFFFFFFFFFFFFFFFFFFFFFFFFFFFFFFFFFFF AND DUP2 MSTORE POP PUSH1 0x3 SWAP1 PUSH1 0x1 PUSH2 0x841 SWAP3 SWAP2 SWAP1 PUSH2 0xC20 JUMP JUMPDEST POP JUMPDEST POP POP POP POP JUMP JUMPDEST PUSH2 0x851 PUSH2 0xBDD JUMP JUMPDEST PUSH1 0x2 PUSH0 DUP4 DUP2 MSTORE PUSH1 0x20 ADD SWAP1 DUP2 MSTORE PUSH1 0x20 ADD PUSH0 KECCAK256 PUSH1 0x40 MLOAD DUP1 PUSH2 0x100 ADD PUSH1 0x40 MSTORE SWAP1 DUP2 PUSH0 DUP3 ADD DUP1 SLOAD PUSH2 0x87D SWAP1 PUSH2 0x1169 JUMP JUMPDEST DUP1 PUSH1 0x1F ADD PUSH1 0x20 DUP1 SWAP2 DIV MUL PUSH1 0x20 ADD PUSH1 0x40 MLOAD SWAP1 DUP2 ADD PUSH1 0x40 MSTORE DUP1 SWAP3 SWAP2 SWAP1 DUP2 DUP2 MSTORE PUSH1 0x20 ADD DUP3 DUP1 SLOAD PUSH2 0x8A9 SWAP1 PUSH2 0x1169 JUMP JUMPDEST DUP1 ISZERO PUSH2 0x8F4 JUMPI DUP1 PUSH1 0x1F LT PUSH2 0x8CB JUMPI PUSH2 0x100 DUP1 DUP4 SLOAD DIV MUL DUP4 MSTORE SWAP2 PUSH1 0x20 ADD SWAP2 PUSH2 0x8F4 JUMP JUMPDEST DUP3 ADD SWAP2 SWAP1 PUSH0 MSTORE PUSH1 0x20 PUSH0 KECCAK256 SWAP1 JUMPDEST DUP2 SLOAD DUP2 MSTORE SWAP1 PUSH1 0x1 ADD SWAP1 PUSH1 0x20 ADD DUP1 DUP4 GT PUSH2 0x8D7 JUMPI DUP3 SWAP1 SUB PUSH1 0x1F AND DUP3 ADD SWAP2 JUMPDEST POP POP POP POP POP DUP2 MSTORE PUSH1 0x20 ADD PUSH1 0x1 DUP3 ADD DUP1 SLOAD PUSH2 0x90D SWAP1 PUSH2 0x1169 JUMP JUMPDEST DUP1 PUSH1 0x1F ADD PUSH1 0x20 DUP1 SWAP2 DIV MUL PUSH1 0x20 ADD PUSH1 0x40 MLOAD SWAP1 DUP2 ADD PUSH1 0x40 MSTORE DUP1 SWAP3 SWAP2 SWAP1 DUP2 DUP2 MSTORE PUSH1 0x20 ADD DUP3 DUP1 SLOAD PUSH2 0x939 SWAP1 PUSH2 0x1169 JUMP JUMPDEST DUP1 ISZERO PUSH2 0x984 JUMPI DUP1 PUSH1 0x1F LT PUSH2 0x95B JUMPI PUSH2 0x100 DUP1 DUP4 SLOAD DIV MUL DUP4 MSTORE SWAP2 PUSH1 0x20 ADD SWAP2 PUSH2 0x984 JUMP JUMPDEST DUP3 ADD SWAP2 SWAP1 PUSH0 MSTORE PUSH1 0x20 PUSH0 KECCAK256 SWAP1 JUMPDEST DUP2 SLOAD DUP2 MSTORE SWAP1 PUSH1 0x1 ADD SWAP1 PUSH1 0x20 ADD DUP1 DUP4 GT PUSH2 0x967 JUMPI DUP3 SWAP1 SUB PUSH1 0x1F AND DUP3 ADD SWAP2 JUMPDEST POP POP POP POP POP DUP2 MSTORE PUSH1 0x20 ADD PUSH1 0x2 DUP3 ADD SLOAD DUP2 MSTORE PUSH1 0x20 ADD PUSH1 0x3 DUP3 ADD SLOAD DUP2 MSTORE PUSH1 0x20 ADD PUSH1 0x4 DUP3 ADD SLOAD DUP2 MSTORE PUSH1 0x20 ADD PUSH1 0x5 DUP3 ADD SLOAD DUP2 MSTORE PUSH1 0x20 ADD PUSH1 0x6 DUP3 ADD PUSH0 SWAP1 SLOAD SWAP1 PUSH2 0x100 EXP SWAP1 DIV PUSH1 0xFF AND ISZERO ISZERO ISZERO ISZERO DUP2 MSTORE PUSH1 0x20 ADD PUSH1 0x6 DUP3 ADD PUSH1 0x1 SWAP1 SLOAD SWAP1 PUSH2 0x100 EXP SWAP1 DIV PUSH1 0xFF AND ISZERO ISZERO ISZERO ISZERO DUP2 MSTORE POP POP SWAP1 POP SWAP2 SWAP1 POP JUMP JUMPDEST PUSH0 DUP1 PUSH0 SWAP1 POP JUMPDEST PUSH1 0x3 DUP1 SLOAD SWAP1 POP DUP2 LT ISZERO PUSH2 0xA89 JUMPI DUP3 PUSH20 0xFFFFFFFFFFFFFFFFFFFFFFFFFFFFFFFFFFFFFFFF AND PUSH1 0x3 DUP3 DUP2 SLOAD DUP2 LT PUSH2 0xA2F JUMPI PUSH2 0xA2E PUSH2 0x14B0 JUMP JUMPDEST JUMPDEST SWAP1 PUSH0 MSTORE PUSH1 0x20 PUSH0 KECCAK256 ADD PUSH0 SWAP1 SLOAD SWAP1 PUSH2 0x100 EXP SWAP1 DIV PUSH20 0xFFFFFFFFFFFFFFFFFFFFFFFFFFFFFFFFFFFFFFFF AND PUSH20 0xFFFFFFFFFFFFFFFFFFFFFFFFFFFFFFFFFFFFFFFF AND SUB PUSH2 0xA7C JUMPI PUSH1 0x1 SWAP2 POP POP PUSH2 0xA8E JUMP JUMPDEST DUP1 DUP1 PUSH1 0x1 ADD SWAP2 POP POP PUSH2 0x9F7 JUMP JUMPDEST POP PUSH0 SWAP1 POP JUMPDEST SWAP2 SWAP1 POP JUMP JUMPDEST PUSH0 DUP1 SLOAD SWAP1 PUSH2 0x100 EXP SWAP1 DIV PUSH20 0xFFFFFFFFFFFFFFFFFFFFFFFFFFFFFFFFFFFFFFFF AND PUSH20 0xFFFFFFFFFFFFFFFFFFFFFFFFFFFFFFFFFFFFFFFF AND CALLER PUSH20 0xFFFFFFFFFFFFFFFFFFFFFFFFFFFFFFFFFFFFFFFF AND EQ PUSH2 0xAE9 JUMPI PUSH0 DUP1 REVERT JUMPDEST PUSH1 0x1 ISZERO ISZERO PUSH1 0x2 PUSH0 PUSH1 0x1 SLOAD DUP2 MSTORE PUSH1 0x20 ADD SWAP1 DUP2 MSTORE PUSH1 0x20 ADD PUSH0 KECCAK256 PUSH1 0x6 ADD PUSH1 0x1 SWAP1 SLOAD SWAP1 PUSH2 0x100 EXP SWAP1 DIV PUSH1 0xFF AND ISZERO ISZERO EQ PUSH2 0xB1C JUMPI PUSH0 DUP1 REVERT JUMPDEST PUSH0 PUSH1 0x2 PUSH0 PUSH1 0x1 SLOAD DUP2 MSTORE PUSH1 0x20 ADD SWAP1 DUP2 MSTORE PUSH1 0x20 ADD PUSH0 KECCAK256 PUSH1 0x6 ADD PUSH1 0x1 PUSH2 0x100 EXP DUP2 SLOAD DUP2 PUSH1 0xFF MUL NOT AND SWAP1 DUP4 ISZERO ISZERO MUL OR SWAP1 SSTORE POP JUMP JUMPDEST PUSH0 DUP1 PUSH1 0x2 PUSH0 PUSH1 0x1 SLOAD DUP2 MSTORE PUSH1 0x20 ADD SWAP1 DUP2 MSTORE PUSH1 0x20 ADD PUSH0 KECCAK256 SWAP1 POP PUSH0 DUP2 PUSH1 0x2 ADD SLOAD SWAP1 POP PUSH0 DUP3 PUSH1 0x3 ADD SLOAD SWAP1 POP PUSH0 DUP4 PUSH1 0x4 ADD SLOAD SWAP1 POP PUSH1 0x1 PUSH1 0x2 DUP6 PUSH1 0x4 ADD SLOAD PUSH2 0xB8E SWAP2 SWAP1 PUSH2 0x150A JUMP JUMPDEST SUB PUSH2 0xBA3 JUMPI PUSH1 0x1 DUP2 PUSH2 0xBA0 SWAP2 SWAP1 PUSH2 0x10DC JUMP JUMPDEST SWAP1 POP JUMPDEST PUSH1 0x2 DUP2 PUSH2 0xBB0 SWAP2 SWAP1 PUSH2 0x153A JUMP JUMPDEST SWAP1 POP DUP1 DUP3 PUSH2 0xBBE SWAP2 SWAP1 PUSH2 0x10DC JUMP JUMPDEST DUP4 GT ISZERO PUSH2 0xBD2 JUMPI PUSH1 0x1 SWAP5 POP POP POP POP POP PUSH2 0xBDA JUMP JUMPDEST PUSH0 SWAP5 POP POP POP POP POP JUMPDEST SWAP1 JUMP JUMPDEST PUSH1 0x40 MLOAD DUP1 PUSH2 0x100 ADD PUSH1 0x40 MSTORE DUP1 PUSH1 0x60 DUP2 MSTORE PUSH1 0x20 ADD PUSH1 0x60 DUP2 MSTORE PUSH1 0x20 ADD PUSH0 DUP2 MSTORE PUSH1 0x20 ADD PUSH0 DUP2 MSTORE PUSH1 0x20 ADD PUSH0 DUP2 MSTORE PUSH1 0x20 ADD PUSH0 DUP2 MSTORE PUSH1 0x20 ADD PUSH0 ISZERO ISZERO DUP2 MSTORE PUSH1 0x20 ADD PUSH0 ISZERO ISZERO DUP2 MSTORE POP SWAP1 JUMP JUMPDEST DUP3 DUP1 SLOAD DUP3 DUP3 SSTORE SWAP1 PUSH0 MSTORE PUSH1 0x20 PUSH0 KECCAK256 SWAP1 DUP2 ADD SWAP3 DUP3 ISZERO PUSH2 0xC96 JUMPI SWAP2 PUSH1 0x20 MUL DUP3 ADD JUMPDEST DUP3 DUP2 GT ISZERO PUSH2 0xC95 JUMPI DUP3 MLOAD DUP3 PUSH0 PUSH2 0x100 EXP DUP2 SLOAD DUP2 PUSH20 0xFFFFFFFFFFFFFFFFFFFFFFFFFFFFFFFFFFFFFFFF MUL NOT AND SWAP1 DUP4 PUSH20 0xFFFFFFFFFFFFFFFFFFFFFFFFFFFFFFFFFFFFFFFF AND MUL OR SWAP1 SSTORE POP SWAP2 PUSH1 0x20 ADD SWAP2 SWAP1 PUSH1 0x1 ADD SWAP1 PUSH2 0xC3E JUMP JUMPDEST JUMPDEST POP SWAP1 POP PUSH2 0xCA3 SWAP2 SWAP1 PUSH2 0xCA7 JUMP JUMPDEST POP SWAP1 JUMP JUMPDEST JUMPDEST DUP1 DUP3 GT ISZERO PUSH2 0xCBE JUMPI PUSH0 DUP2 PUSH0 SWAP1 SSTORE POP PUSH1 0x1 ADD PUSH2 0xCA8 JUMP JUMPDEST POP SWAP1 JUMP JUMPDEST PUSH0 DUP1 REVERT JUMPDEST PUSH0 DUP1 REVERT JUMPDEST PUSH0 PUSH20 0xFFFFFFFFFFFFFFFFFFFFFFFFFFFFFFFFFFFFFFFF DUP3 AND SWAP1 POP SWAP2 SWAP1 POP JUMP JUMPDEST PUSH0 PUSH2 0xCF3 DUP3 PUSH2 0xCCA JUMP JUMPDEST SWAP1 POP SWAP2 SWAP1 POP JUMP JUMPDEST PUSH2 0xD03 DUP2 PUSH2 0xCE9 JUMP JUMPDEST DUP2 EQ PUSH2 0xD0D JUMPI PUSH0 DUP1 REVERT JUMPDEST POP JUMP JUMPDEST PUSH0 DUP2 CALLDATALOAD SWAP1 POP PUSH2 0xD1E DUP2 PUSH2 0xCFA JUMP JUMPDEST SWAP3 SWAP2 POP POP JUMP JUMPDEST PUSH0 PUSH1 0x20 DUP3 DUP5 SUB SLT ISZERO PUSH2 0xD39 JUMPI PUSH2 0xD38 PUSH2 0xCC2 JUMP JUMPDEST JUMPDEST PUSH0 PUSH2 0xD46 DUP5 DUP3 DUP6 ADD PUSH2 0xD10 JUMP JUMPDEST SWAP2 POP POP SWAP3 SWAP2 POP POP JUMP JUMPDEST PUSH0 DUP1 REVERT JUMPDEST PUSH0 DUP1 REVERT JUMPDEST PUSH0 DUP1 REVERT JUMPDEST PUSH0 DUP1 DUP4 PUSH1 0x1F DUP5 ADD SLT PUSH2 0xD70 JUMPI PUSH2 0xD6F PUSH2 0xD4F JUMP JUMPDEST JUMPDEST DUP3 CALLDATALOAD SWAP1 POP PUSH8 0xFFFFFFFFFFFFFFFF DUP2 GT ISZERO PUSH2 0xD8D JUMPI PUSH2 0xD8C PUSH2 0xD53 JUMP JUMPDEST JUMPDEST PUSH1 0x20 DUP4 ADD SWAP2 POP DUP4 PUSH1 0x1 DUP3 MUL DUP4 ADD GT ISZERO PUSH2 0xDA9 JUMPI PUSH2 0xDA8 PUSH2 0xD57 JUMP JUMPDEST JUMPDEST SWAP3 POP SWAP3 SWAP1 POP JUMP JUMPDEST PUSH0 DUP2 SWAP1 POP SWAP2 SWAP1 POP JUMP JUMPDEST PUSH2 0xDC2 DUP2 PUSH2 0xDB0 JUMP JUMPDEST DUP2 EQ PUSH2 0xDCC JUMPI PUSH0 DUP1 REVERT JUMPDEST POP JUMP JUMPDEST PUSH0 DUP2 CALLDATALOAD SWAP1 POP PUSH2 0xDDD DUP2 PUSH2 0xDB9 JUMP JUMPDEST SWAP3 SWAP2 POP POP JUMP JUMPDEST PUSH0 DUP1 PUSH0 DUP1 PUSH0 PUSH1 0x60 DUP7 DUP9 SUB SLT ISZERO PUSH2 0xDFC JUMPI PUSH2 0xDFB PUSH2 0xCC2 JUMP JUMPDEST JUMPDEST PUSH0 DUP7 ADD CALLDATALOAD PUSH8 0xFFFFFFFFFFFFFFFF DUP2 GT ISZERO PUSH2 0xE19 JUMPI PUSH2 0xE18 PUSH2 0xCC6 JUMP JUMPDEST JUMPDEST PUSH2 0xE25 DUP9 DUP3 DUP10 ADD PUSH2 0xD5B JUMP JUMPDEST SWAP6 POP SWAP6 POP POP PUSH1 0x20 DUP7 ADD CALLDATALOAD PUSH8 0xFFFFFFFFFFFFFFFF DUP2 GT ISZERO PUSH2 0xE48 JUMPI PUSH2 0xE47 PUSH2 0xCC6 JUMP JUMPDEST JUMPDEST PUSH2 0xE54 DUP9 DUP3 DUP10 ADD PUSH2 0xD5B JUMP JUMPDEST SWAP4 POP SWAP4 POP POP PUSH1 0x40 PUSH2 0xE67 DUP9 DUP3 DUP10 ADD PUSH2 0xDCF JUMP JUMPDEST SWAP2 POP POP SWAP3 SWAP6 POP SWAP3 SWAP6 SWAP1 SWAP4 POP JUMP JUMPDEST PUSH0 DUP2 MLOAD SWAP1 POP SWAP2 SWAP1 POP JUMP JUMPDEST PUSH0 DUP3 DUP3 MSTORE PUSH1 0x20 DUP3 ADD SWAP1 POP SWAP3 SWAP2 POP POP JUMP JUMPDEST PUSH0 JUMPDEST DUP4 DUP2 LT ISZERO PUSH2 0xEAB JUMPI DUP1 DUP3 ADD MLOAD DUP2 DUP5 ADD MSTORE PUSH1 0x20 DUP2 ADD SWAP1 POP PUSH2 0xE90 JUMP JUMPDEST PUSH0 DUP5 DUP5 ADD MSTORE POP POP POP POP JUMP JUMPDEST PUSH0 PUSH1 0x1F NOT PUSH1 0x1F DUP4 ADD AND SWAP1 POP SWAP2 SWAP1 POP JUMP JUMPDEST PUSH0 PUSH2 0xED0 DUP3 PUSH2 0xE74 JUMP JUMPDEST PUSH2 0xEDA DUP2 DUP6 PUSH2 0xE7E JUMP JUMPDEST SWAP4 POP PUSH2 0xEEA DUP2 DUP6 PUSH1 0x20 DUP7 ADD PUSH2 0xE8E JUMP JUMPDEST PUSH2 0xEF3 DUP2 PUSH2 0xEB6 JUMP JUMPDEST DUP5 ADD SWAP2 POP POP SWAP3 SWAP2 POP POP JUMP JUMPDEST PUSH2 0xF07 DUP2 PUSH2 0xDB0 JUMP JUMPDEST DUP3 MSTORE POP POP JUMP JUMPDEST PUSH0 DUP2 ISZERO ISZERO SWAP1 POP SWAP2 SWAP1 POP JUMP JUMPDEST PUSH2 0xF21 DUP2 PUSH2 0xF0D JUMP JUMPDEST DUP3 MSTORE POP POP JUMP JUMPDEST PUSH0 PUSH2 0x100 DUP4 ADD PUSH0 DUP4 ADD MLOAD DUP5 DUP3 SUB PUSH0 DUP7 ADD MSTORE PUSH2 0xF42 DUP3 DUP3 PUSH2 0xEC6 JUMP JUMPDEST SWAP2 POP POP PUSH1 0x20 DUP4 ADD MLOAD DUP5 DUP3 SUB PUSH1 0x20 DUP7 ADD MSTORE PUSH2 0xF5C DUP3 DUP3 PUSH2 0xEC6 JUMP JUMPDEST SWAP2 POP POP PUSH1 0x40 DUP4 ADD MLOAD PUSH2 0xF71 PUSH1 0x40 DUP7 ADD DUP3 PUSH2 0xEFE JUMP JUMPDEST POP PUSH1 0x60 DUP4 ADD MLOAD PUSH2 0xF84 PUSH1 0x60 DUP7 ADD DUP3 PUSH2 0xEFE JUMP JUMPDEST POP PUSH1 0x80 DUP4 ADD MLOAD PUSH2 0xF97 PUSH1 0x80 DUP7 ADD DUP3 PUSH2 0xEFE JUMP JUMPDEST POP PUSH1 0xA0 DUP4 ADD MLOAD PUSH2 0xFAA PUSH1 0xA0 DUP7 ADD DUP3 PUSH2 0xEFE JUMP JUMPDEST POP PUSH1 0xC0 DUP4 ADD MLOAD PUSH2 0xFBD PUSH1 0xC0 DUP7 ADD DUP3 PUSH2 0xF18 JUMP JUMPDEST POP PUSH1 0xE0 DUP4 ADD MLOAD PUSH2 0xFD0 PUSH1 0xE0 DUP7 ADD DUP3 PUSH2 0xF18 JUMP JUMPDEST POP DUP1 SWAP2 POP POP SWAP3 SWAP2 POP POP JUMP JUMPDEST PUSH0 PUSH1 0x20 DUP3 ADD SWAP1 POP DUP2 DUP2 SUB PUSH0 DUP4 ADD MSTORE PUSH2 0xFF3 DUP2 DUP5 PUSH2 0xF27 JUMP JUMPDEST SWAP1 POP SWAP3 SWAP2 POP POP JUMP JUMPDEST PUSH0 PUSH1 0xFF DUP3 AND SWAP1 POP SWAP2 SWAP1 POP JUMP JUMPDEST PUSH2 0x1010 DUP2 PUSH2 0xFFB JUMP JUMPDEST DUP2 EQ PUSH2 0x101A JUMPI PUSH0 DUP1 REVERT JUMPDEST POP JUMP JUMPDEST PUSH0 DUP2 CALLDATALOAD SWAP1 POP PUSH2 0x102B DUP2 PUSH2 0x1007 JUMP JUMPDEST SWAP3 SWAP2 POP POP JUMP JUMPDEST PUSH0 PUSH1 0x20 DUP3 DUP5 SUB SLT ISZERO PUSH2 0x1046 JUMPI PUSH2 0x1045 PUSH2 0xCC2 JUMP JUMPDEST JUMPDEST PUSH0 PUSH2 0x1053 DUP5 DUP3 DUP6 ADD PUSH2 0x101D JUMP JUMPDEST SWAP2 POP POP SWAP3 SWAP2 POP POP JUMP JUMPDEST PUSH0 PUSH1 0x20 DUP3 DUP5 SUB SLT ISZERO PUSH2 0x1071 JUMPI PUSH2 0x1070 PUSH2 0xCC2 JUMP JUMPDEST JUMPDEST PUSH0 PUSH2 0x107E DUP5 DUP3 DUP6 ADD PUSH2 0xDCF JUMP JUMPDEST SWAP2 POP POP SWAP3 SWAP2 POP POP JUMP JUMPDEST PUSH2 0x1090 DUP2 PUSH2 0xF0D JUMP JUMPDEST DUP3 MSTORE POP POP JUMP JUMPDEST PUSH0 PUSH1 0x20 DUP3 ADD SWAP1 POP PUSH2 0x10A9 PUSH0 DUP4 ADD DUP5 PUSH2 0x1087 JUMP JUMPDEST SWAP3 SWAP2 POP POP JUMP JUMPDEST PUSH32 0x4E487B7100000000000000000000000000000000000000000000000000000000 PUSH0 MSTORE PUSH1 0x11 PUSH1 0x4 MSTORE PUSH1 0x24 PUSH0 REVERT JUMPDEST PUSH0 PUSH2 0x10E6 DUP3 PUSH2 0xDB0 JUMP JUMPDEST SWAP2 POP PUSH2 0x10F1 DUP4 PUSH2 0xDB0 JUMP JUMPDEST SWAP3 POP DUP3 DUP3 ADD SWAP1 POP DUP1 DUP3 GT ISZERO PUSH2 0x1109 JUMPI PUSH2 0x1108 PUSH2 0x10AF JUMP JUMPDEST JUMPDEST SWAP3 SWAP2 POP POP JUMP JUMPDEST PUSH32 0x4E487B7100000000000000000000000000000000000000000000000000000000 PUSH0 MSTORE PUSH1 0x41 PUSH1 0x4 MSTORE PUSH1 0x24 PUSH0 REVERT JUMPDEST PUSH32 0x4E487B7100000000000000000000000000000000000000000000000000000000 PUSH0 MSTORE PUSH1 0x22 PUSH1 0x4 MSTORE PUSH1 0x24 PUSH0 REVERT JUMPDEST PUSH0 PUSH1 0x2 DUP3 DIV SWAP1 POP PUSH1 0x1 DUP3 AND DUP1 PUSH2 0x1180 JUMPI PUSH1 0x7F DUP3 AND SWAP2 POP JUMPDEST PUSH1 0x20 DUP3 LT DUP2 SUB PUSH2 0x1193 JUMPI PUSH2 0x1192 PUSH2 0x113C JUMP JUMPDEST JUMPDEST POP SWAP2 SWAP1 POP JUMP JUMPDEST PUSH0 DUP2 SWAP1 POP DUP2 PUSH0 MSTORE PUSH1 0x20 PUSH0 KECCAK256 SWAP1 POP SWAP2 SWAP1 POP JUMP JUMPDEST PUSH0 PUSH1 0x20 PUSH1 0x1F DUP4 ADD DIV SWAP1 POP SWAP2 SWAP1 POP JUMP JUMPDEST PUSH0 DUP3 DUP3 SHL SWAP1 POP SWAP3 SWAP2 POP POP JUMP JUMPDEST PUSH0 PUSH1 0x8 DUP4 MUL PUSH2 0x11F5 PUSH32 0xFFFFFFFFFFFFFFFFFFFFFFFFFFFFFFFFFFFFFFFFFFFFFFFFFFFFFFFFFFFFFFFF DUP3 PUSH2 0x11BA JUMP JUMPDEST PUSH2 0x11FF DUP7 DUP4 PUSH2 0x11BA JUMP JUMPDEST SWAP6 POP DUP1 NOT DUP5 AND SWAP4 POP DUP1 DUP7 AND DUP5 OR SWAP3 POP POP POP SWAP4 SWAP3 POP POP POP JUMP JUMPDEST PUSH0 DUP2 SWAP1 POP SWAP2 SWAP1 POP JUMP JUMPDEST PUSH0 PUSH2 0x123A PUSH2 0x1235 PUSH2 0x1230 DUP5 PUSH2 0xDB0 JUMP JUMPDEST PUSH2 0x1217 JUMP JUMPDEST PUSH2 0xDB0 JUMP JUMPDEST SWAP1 POP SWAP2 SWAP1 POP JUMP JUMPDEST PUSH0 DUP2 SWAP1 POP SWAP2 SWAP1 POP JUMP JUMPDEST PUSH2 0x1253 DUP4 PUSH2 0x1220 JUMP JUMPDEST PUSH2 0x1267 PUSH2 0x125F DUP3 PUSH2 0x1241 JUMP JUMPDEST DUP5 DUP5 SLOAD PUSH2 0x11C6 JUMP JUMPDEST DUP3 SSTORE POP POP POP POP JUMP JUMPDEST PUSH0 SWAP1 JUMP JUMPDEST PUSH2 0x127B PUSH2 0x126F JUMP JUMPDEST PUSH2 0x1286 DUP2 DUP5 DUP5 PUSH2 0x124A JUMP JUMPDEST POP POP POP JUMP JUMPDEST JUMPDEST DUP2 DUP2 LT ISZERO PUSH2 0x12A9 JUMPI PUSH2 0x129E PUSH0 DUP3 PUSH2 0x1273 JUMP JUMPDEST PUSH1 0x1 DUP2 ADD SWAP1 POP PUSH2 0x128C JUMP JUMPDEST POP POP JUMP JUMPDEST PUSH1 0x1F DUP3 GT ISZERO PUSH2 0x12EE JUMPI PUSH2 0x12BF DUP2 PUSH2 0x1199 JUMP JUMPDEST PUSH2 0x12C8 DUP5 PUSH2 0x11AB JUMP JUMPDEST DUP2 ADD PUSH1 0x20 DUP6 LT ISZERO PUSH2 0x12D7 JUMPI DUP2 SWAP1 POP JUMPDEST PUSH2 0x12EB PUSH2 0x12E3 DUP6 PUSH2 0x11AB JUMP JUMPDEST DUP4 ADD DUP3 PUSH2 0x128B JUMP JUMPDEST POP POP JUMPDEST POP POP POP JUMP JUMPDEST PUSH0 DUP3 DUP3 SHR SWAP1 POP SWAP3 SWAP2 POP POP JUMP JUMPDEST PUSH0 PUSH2 0x130E PUSH0 NOT DUP5 PUSH1 0x8 MUL PUSH2 0x12F3 JUMP JUMPDEST NOT DUP1 DUP4 AND SWAP2 POP POP SWAP3 SWAP2 POP POP JUMP JUMPDEST PUSH0 PUSH2 0x1326 DUP4 DUP4 PUSH2 0x12FF JUMP JUMPDEST SWAP2 POP DUP3 PUSH1 0x2 MUL DUP3 OR SWAP1 POP SWAP3 SWAP2 POP POP JUMP JUMPDEST PUSH2 0x133F DUP3 PUSH2 0xE74 JUMP JUMPDEST PUSH8 0xFFFFFFFFFFFFFFFF DUP2 GT ISZERO PUSH2 0x1358 JUMPI PUSH2 0x1357 PUSH2 0x110F JUMP JUMPDEST JUMPDEST PUSH2 0x1362 DUP3 SLOAD PUSH2 0x1169 JUMP JUMPDEST PUSH2 0x136D DUP3 DUP3 DUP6 PUSH2 0x12AD JUMP JUMPDEST PUSH0 PUSH1 0x20 SWAP1 POP PUSH1 0x1F DUP4 GT PUSH1 0x1 DUP2 EQ PUSH2 0x139E JUMPI PUSH0 DUP5 ISZERO PUSH2 0x138C JUMPI DUP3 DUP8 ADD MLOAD SWAP1 POP JUMPDEST PUSH2 0x1396 DUP6 DUP3 PUSH2 0x131B JUMP JUMPDEST DUP7 SSTORE POP PUSH2 0x13FD JUMP JUMPDEST PUSH1 0x1F NOT DUP5 AND PUSH2 0x13AC DUP7 PUSH2 0x1199 JUMP JUMPDEST PUSH0 JUMPDEST DUP3 DUP2 LT ISZERO PUSH2 0x13D3 JUMPI DUP5 DUP10 ADD MLOAD DUP3 SSTORE PUSH1 0x1 DUP3 ADD SWAP2 POP PUSH1 0x20 DUP6 ADD SWAP5 POP PUSH1 0x20 DUP2 ADD SWAP1 POP PUSH2 0x13AE JUMP JUMPDEST DUP7 DUP4 LT ISZERO PUSH2 0x13F0 JUMPI DUP5 DUP10 ADD MLOAD PUSH2 0x13EC PUSH1 0x1F DUP10 AND DUP3 PUSH2 0x12FF JUMP JUMPDEST DUP4 SSTORE POP JUMPDEST PUSH1 0x1 PUSH1 0x2 DUP9 MUL ADD DUP9 SSTORE POP POP POP JUMPDEST POP POP POP POP POP POP JUMP JUMPDEST PUSH0 DUP3 DUP3 MSTORE PUSH1 0x20 DUP3 ADD SWAP1 POP SWAP3 SWAP2 POP POP JUMP JUMPDEST PUSH32 0x4164647265737320686173206E6F7420766F7465642079657400000000000000 PUSH0 DUP3 ADD MSTORE POP JUMP JUMPDEST PUSH0 PUSH2 0x1449 PUSH1 0x19 DUP4 PUSH2 0x1405 JUMP JUMPDEST SWAP2 POP PUSH2 0x1454 DUP3 PUSH2 0x1415 JUMP JUMPDEST PUSH1 0x20 DUP3 ADD SWAP1 POP SWAP2 SWAP1 POP JUMP JUMPDEST PUSH0 PUSH1 0x20 DUP3 ADD SWAP1 POP DUP2 DUP2 SUB PUSH0 DUP4 ADD MSTORE PUSH2 0x1476 DUP2 PUSH2 0x143D JUMP JUMPDEST SWAP1 POP SWAP2 SWAP1 POP JUMP JUMPDEST PUSH0 PUSH2 0x1487 DUP3 PUSH2 0xDB0 JUMP JUMPDEST SWAP2 POP PUSH2 0x1492 DUP4 PUSH2 0xDB0 JUMP JUMPDEST SWAP3 POP DUP3 DUP3 SUB SWAP1 POP DUP2 DUP2 GT ISZERO PUSH2 0x14AA JUMPI PUSH2 0x14A9 PUSH2 0x10AF JUMP JUMPDEST JUMPDEST SWAP3 SWAP2 POP POP JUMP JUMPDEST PUSH32 0x4E487B7100000000000000000000000000000000000000000000000000000000 PUSH0 MSTORE PUSH1 0x32 PUSH1 0x4 MSTORE PUSH1 0x24 PUSH0 REVERT JUMPDEST PUSH32 0x4E487B7100000000000000000000000000000000000000000000000000000000 PUSH0 MSTORE PUSH1 0x12 PUSH1 0x4 MSTORE PUSH1 0x24 PUSH0 REVERT JUMPDEST PUSH0 PUSH2 0x1514 DUP3 PUSH2 0xDB0 JUMP JUMPDEST SWAP2 POP PUSH2 0x151F DUP4 PUSH2 0xDB0 JUMP JUMPDEST SWAP3 POP DUP3 PUSH2 0x152F JUMPI PUSH2 0x152E PUSH2 0x14DD JUMP JUMPDEST JUMPDEST DUP3 DUP3 MOD SWAP1 POP SWAP3 SWAP2 POP POP JUMP JUMPDEST PUSH0 PUSH2 0x1544 DUP3 PUSH2 0xDB0 JUMP JUMPDEST SWAP2 POP PUSH2 0x154F DUP4 PUSH2 0xDB0 JUMP JUMPDEST SWAP3 POP DUP3 PUSH2 0x155F JUMPI PUSH2 0x155E PUSH2 0x14DD JUMP JUMPDEST JUMPDEST DUP3 DUP3 DIV SWAP1 POP SWAP3 SWAP2 POP POP JUMP INVALID LOG2 PUSH5 0x6970667358 0x22 SLT KECCAK256 EXTCODECOPY RETURNDATACOPY PUSH19 0x827F4E6C0B734C92545562787D18FABA9DA99 DUP12 EXTCODEHASH ADDRESS 0xE8 PUSH22 0xEABD332F7864736F6C63430008180033000000000000 "
		},
		"gasEstimates": {
			"creation": {
				"codeDepositCost": "1107200",
				"executionCost": "73985",
				"totalCost": "1181185"
			},
			"external": {
				"create(string,string,uint256)": "infinite",
				"getCurrentProposal()": "infinite",
				"getProposal(uint256)": "infinite",
				"isVoted(address)": "infinite",
				"setOwner(address)": "26882",
				"terminateProposal()": "33276",
				"vote(uint8)": "infinite"
			},
			"internal": {
				"calculateCurrentState()": "infinite"
			}
		},
		"methodIdentifiers": {
			"create(string,string,uint256)": "3ca6d100",
			"getCurrentProposal()": "41ec6870",
			"getProposal(uint256)": "c7f758a8",
			"isVoted(address)": "cbff75cb",
			"setOwner(address)": "13af4035",
			"terminateProposal()": "dbddc7aa",
			"vote(uint8)": "b3f98adc"
		}
	},
	"abi": [
		{
			"inputs": [],
			"stateMutability": "nonpayable",
			"type": "constructor"
		},
		{
			"inputs": [
				{
					"internalType": "string",
					"name": "_title",
					"type": "string"
				},
				{
					"internalType": "string",
					"name": "_description",
					"type": "string"
				},
				{
					"internalType": "uint256",
					"name": "_total_vote_to_end",
					"type": "uint256"
				}
			],
			"name": "create",
			"outputs": [],
			"stateMutability": "nonpayable",
			"type": "function"
		},
		{
			"inputs": [],
			"name": "getCurrentProposal",
			"outputs": [
				{
					"components": [
						{
							"internalType": "string",
							"name": "title",
							"type": "string"
						},
						{
							"internalType": "string",
							"name": "description",
							"type": "string"
						},
						{
							"internalType": "uint256",
							"name": "approve",
							"type": "uint256"
						},
						{
							"internalType": "uint256",
							"name": "reject",
							"type": "uint256"
						},
						{
							"internalType": "uint256",
							"name": "pass",
							"type": "uint256"
						},
						{
							"internalType": "uint256",
							"name": "total_vote_to_end",
							"type": "uint256"
						},
						{
							"internalType": "bool",
							"name": "current_state",
							"type": "bool"
						},
						{
							"internalType": "bool",
							"name": "is_active",
							"type": "bool"
						}
					],
					"internalType": "struct ProposalContract.Proposal",
					"name": "",
					"type": "tuple"
				}
			],
			"stateMutability": "view",
			"type": "function"
		},
		{
			"inputs": [
				{
					"internalType": "uint256",
					"name": "number",
					"type": "uint256"
				}
			],
			"name": "getProposal",
			"outputs": [
				{
					"components": [
						{
							"internalType": "string",
							"name": "title",
							"type": "string"
						},
						{
							"internalType": "string",
							"name": "description",
							"type": "string"
						},
						{
							"internalType": "uint256",
							"name": "approve",
							"type": "uint256"
						},
						{
							"internalType": "uint256",
							"name": "reject",
							"type": "uint256"
						},
						{
							"internalType": "uint256",
							"name": "pass",
							"type": "uint256"
						},
						{
							"internalType": "uint256",
							"name": "total_vote_to_end",
							"type": "uint256"
						},
						{
							"internalType": "bool",
							"name": "current_state",
							"type": "bool"
						},
						{
							"internalType": "bool",
							"name": "is_active",
							"type": "bool"
						}
					],
					"internalType": "struct ProposalContract.Proposal",
					"name": "",
					"type": "tuple"
				}
			],
			"stateMutability": "view",
			"type": "function"
		},
		{
			"inputs": [
				{
					"internalType": "address",
					"name": "_address",
					"type": "address"
				}
			],
			"name": "isVoted",
			"outputs": [
				{
					"internalType": "bool",
					"name": "",
					"type": "bool"
				}
			],
			"stateMutability": "view",
			"type": "function"
		},
		{
			"inputs": [
				{
					"internalType": "address",
					"name": "new_owner",
					"type": "address"
				}
			],
			"name": "setOwner",
			"outputs": [],
			"stateMutability": "nonpayable",
			"type": "function"
		},
		{
			"inputs": [],
			"name": "terminateProposal",
			"outputs": [],
			"stateMutability": "nonpayable",
			"type": "function"
		},
		{
			"inputs": [
				{
					"internalType": "uint8",
					"name": "choice",
					"type": "uint8"
				}
			],
			"name": "vote",
			"outputs": [],
			"stateMutability": "nonpayable",
			"type": "function"
		}
	]
}